{
  "address": "0x08079D26743d5ef2C12033a5992A890A01d2dF0d",
  "abi": [
    {
      "inputs": [
        {
          "internalType": "address",
          "name": "vrfCoordinatorV2",
          "type": "address"
        },
        {
          "internalType": "uint256",
          "name": "entranceFee",
          "type": "uint256"
        },
        {
          "internalType": "bytes32",
          "name": "gasLane",
          "type": "bytes32"
        },
        {
          "internalType": "uint64",
          "name": "subscriptionId",
          "type": "uint64"
        },
        {
          "internalType": "uint32",
          "name": "callbackGasLimit",
          "type": "uint32"
        },
        {
          "internalType": "uint256",
          "name": "secondsInterval",
          "type": "uint256"
        }
      ],
      "stateMutability": "nonpayable",
      "type": "constructor"
    },
    {
      "inputs": [],
      "name": "Lottery__NotEnoughEthEntered",
      "type": "error"
    },
    {
      "inputs": [],
      "name": "Lottery__NotOpen",
      "type": "error"
    },
    {
      "inputs": [],
      "name": "Lottery__TransferFailed",
      "type": "error"
    },
    {
      "inputs": [
        {
          "internalType": "uint256",
          "name": "currentBalance",
          "type": "uint256"
        },
        {
          "internalType": "uint256",
          "name": "numberOfPLayers",
          "type": "uint256"
        },
        {
          "internalType": "uint256",
          "name": "lotteryState",
          "type": "uint256"
        }
      ],
      "name": "Lottery__UpkeepNotValid",
      "type": "error"
    },
    {
      "inputs": [
        {
          "internalType": "address",
          "name": "have",
          "type": "address"
        },
        {
          "internalType": "address",
          "name": "want",
          "type": "address"
        }
      ],
      "name": "OnlyCoordinatorCanFulfill",
      "type": "error"
    },
    {
      "anonymous": false,
      "inputs": [
        {
          "indexed": true,
          "internalType": "address",
          "name": "player",
          "type": "address"
        }
      ],
      "name": "LotteryEnter",
      "type": "event"
    },
    {
      "anonymous": false,
      "inputs": [
        {
          "indexed": true,
          "internalType": "uint256",
          "name": "requestId",
          "type": "uint256"
        }
      ],
      "name": "RequestedLotteryWinner",
      "type": "event"
    },
    {
      "anonymous": false,
      "inputs": [
        {
          "indexed": true,
          "internalType": "address",
          "name": "winner",
          "type": "address"
        }
      ],
      "name": "WinnerPicked",
      "type": "event"
    },
    {
      "inputs": [
        {
          "internalType": "bytes",
          "name": "",
          "type": "bytes"
        }
      ],
      "name": "checkUpkeep",
      "outputs": [
        {
          "internalType": "bool",
          "name": "upkeepNeeded",
          "type": "bool"
        },
        {
          "internalType": "bytes",
          "name": "",
          "type": "bytes"
        }
      ],
      "stateMutability": "view",
      "type": "function"
    },
    {
      "inputs": [],
      "name": "enterLottery",
      "outputs": [],
      "stateMutability": "payable",
      "type": "function"
    },
    {
      "inputs": [],
      "name": "getEntranceFee",
      "outputs": [
        {
          "internalType": "uint256",
          "name": "",
          "type": "uint256"
        }
      ],
      "stateMutability": "view",
      "type": "function"
    },
    {
      "inputs": [],
      "name": "getLastTimestamp",
      "outputs": [
        {
          "internalType": "uint256",
          "name": "",
          "type": "uint256"
        }
      ],
      "stateMutability": "view",
      "type": "function"
    },
    {
      "inputs": [],
      "name": "getLotteryState",
      "outputs": [
        {
          "internalType": "enum Lottery.LotteryState",
          "name": "",
          "type": "uint8"
        }
      ],
      "stateMutability": "view",
      "type": "function"
    },
    {
      "inputs": [],
      "name": "getNumberOfPlayers",
      "outputs": [
        {
          "internalType": "uint256",
          "name": "",
          "type": "uint256"
        }
      ],
      "stateMutability": "view",
      "type": "function"
    },
    {
      "inputs": [],
      "name": "getNumberOfWOrds",
      "outputs": [
        {
          "internalType": "uint256",
          "name": "",
          "type": "uint256"
        }
      ],
      "stateMutability": "pure",
      "type": "function"
    },
    {
      "inputs": [
        {
          "internalType": "uint256",
          "name": "index",
          "type": "uint256"
        }
      ],
      "name": "getPlayer",
      "outputs": [
        {
          "internalType": "address",
          "name": "",
          "type": "address"
        }
      ],
      "stateMutability": "view",
      "type": "function"
    },
    {
      "inputs": [],
      "name": "getRecentWinner",
      "outputs": [
        {
          "internalType": "address",
          "name": "",
          "type": "address"
        }
      ],
      "stateMutability": "view",
      "type": "function"
    },
    {
      "inputs": [],
      "name": "getRequestConfirmations",
      "outputs": [
        {
          "internalType": "uint256",
          "name": "",
          "type": "uint256"
        }
      ],
      "stateMutability": "pure",
      "type": "function"
    },
    {
      "inputs": [],
      "name": "getSecondsInterval",
      "outputs": [
        {
          "internalType": "uint256",
          "name": "",
          "type": "uint256"
        }
      ],
      "stateMutability": "view",
      "type": "function"
    },
    {
      "inputs": [
        {
          "internalType": "bytes",
          "name": "",
          "type": "bytes"
        }
      ],
      "name": "performUpkeep",
      "outputs": [],
      "stateMutability": "nonpayable",
      "type": "function"
    },
    {
      "inputs": [
        {
          "internalType": "uint256",
          "name": "requestId",
          "type": "uint256"
        },
        {
          "internalType": "uint256[]",
          "name": "randomWords",
          "type": "uint256[]"
        }
      ],
      "name": "rawFulfillRandomWords",
      "outputs": [],
      "stateMutability": "nonpayable",
      "type": "function"
    }
  ],
  "transactionHash": "0xea6dd2f936e21216719a28faf56596fe5c9db89b86142c9be66011a306e8487f",
  "args": [
    "0x6168499c0cFfCaCD319c818142124B7A15E857ab",
    "10000000000000000",
    "0xd89b2bf150e3b9e13446986e571fb9cab24b13cea0a43ea20a6049a85cc807cc",
    "5959",
    "500000",
    "30"
  ],
  "numDeployments": 1,
  "solcInputHash": "8aa4bb14e3d8507efe704734f674ebd4",
  "bytecode": "0x6101606040523480156200001257600080fd5b5060405162001861380380620018618339818101604052810190620000389190620001ad565b858073ffffffffffffffffffffffffffffffffffffffff1660808173ffffffffffffffffffffffffffffffffffffffff1660601b81525050508460a081815250508573ffffffffffffffffffffffffffffffffffffffff1660c08173ffffffffffffffffffffffffffffffffffffffff1660601b815250508360e081815250508267ffffffffffffffff166101008167ffffffffffffffff1660c01b815250508163ffffffff166101208163ffffffff1660e01b815250506000600160146101000a81548160ff02191690836001811115620001195762000118620002b5565b5b0217905550426002819055508061014081815250505050505050506200036b565b6000815190506200014b81620002e9565b92915050565b600081519050620001628162000303565b92915050565b60008151905062000179816200031d565b92915050565b600081519050620001908162000337565b92915050565b600081519050620001a78162000351565b92915050565b60008060008060008060c08789031215620001cd57620001cc620002e4565b5b6000620001dd89828a016200013a565b9650506020620001f089828a0162000168565b95505060406200020389828a0162000151565b94505060606200021689828a0162000196565b93505060806200022989828a016200017f565b92505060a06200023c89828a0162000168565b9150509295509295509295565b6000620002568262000267565b9050919050565b6000819050919050565b600073ffffffffffffffffffffffffffffffffffffffff82169050919050565b6000819050919050565b600063ffffffff82169050919050565b600067ffffffffffffffff82169050919050565b7f4e487b7100000000000000000000000000000000000000000000000000000000600052602160045260246000fd5b600080fd5b620002f48162000249565b81146200030057600080fd5b50565b6200030e816200025d565b81146200031a57600080fd5b50565b620003288162000287565b81146200033457600080fd5b50565b620003428162000291565b81146200034e57600080fd5b50565b6200035c81620002a1565b81146200036857600080fd5b50565b60805160601c60a05160c05160601c60e0516101005160c01c6101205160e01c61014051611473620003ee6000396000818161067801526108760152600061051f015260006104fc015260006104db0152600061049f0152600081816102fa015281816106b80152610705015260008181610320015261037401526114736000f3fe6080604052600436106100c25760003560e01c80636b68c03c1161007f578063c4a50bb411610059578063c4a50bb414610238578063db8922dc14610263578063e55ae4e81461028e578063fd6673f5146102cb576100c2565b80636b68c03c146101c55780636e04ff0d146101f0578063c1af57851461022e576100c2565b806309bc33a7146100c75780631fe543e3146100f2578063378997701461011b5780634585e33b14610146578063473f1ddc1461016f5780635f1b0fd81461019a575b600080fd5b3480156100d357600080fd5b506100dc6102f6565b6040516100e99190611079565b60405180910390f35b3480156100fe57600080fd5b5061011960048036038101906101149190610e52565b61031e565b005b34801561012757600080fd5b506101306103de565b60405161013d9190611079565b60405180910390f35b34801561015257600080fd5b5061016d60048036038101906101689190610d62565b6103e8565b005b34801561017b57600080fd5b506101846105e7565b6040516101919190610f97565b60405180910390f35b3480156101a657600080fd5b506101af610611565b6040516101bc9190611079565b60405180910390f35b3480156101d157600080fd5b506101da61061e565b6040516101e7919061105e565b60405180910390f35b3480156101fc57600080fd5b5061021760048036038101906102129190610daf565b610635565b604051610225929190610fdb565b60405180910390f35b610236610703565b005b34801561024457600080fd5b5061024d610872565b60405161025a9190611079565b60405180910390f35b34801561026f57600080fd5b5061027861089a565b6040516102859190611079565b60405180910390f35b34801561029a57600080fd5b506102b560048036038101906102b09190610df8565b6108a9565b6040516102c29190610f97565b60405180910390f35b3480156102d757600080fd5b506102e06108f0565b6040516102ed9190611079565b60405180910390f35b60007f0000000000000000000000000000000000000000000000000000000000000000905090565b7f000000000000000000000000000000000000000000000000000000000000000073ffffffffffffffffffffffffffffffffffffffff163373ffffffffffffffffffffffffffffffffffffffff16146103d057337f00000000000000000000000000000000000000000000000000000000000000006040517f1cf993f40000000000000000000000000000000000000000000000000000000081526004016103c7929190610fb2565b60405180910390fd5b6103da82826108fc565b5050565b6000600254905090565b600061040260405180602001604052806000815250610635565b509050806104715747600080549050600160149054906101000a900460ff16600181111561043357610432611353565b5b6040517fbb66c78d00000000000000000000000000000000000000000000000000000000815260040161046893929190611094565b60405180910390fd5b60018060146101000a81548160ff0219169083600181111561049657610495611353565b5b021790555060007f000000000000000000000000000000000000000000000000000000000000000073ffffffffffffffffffffffffffffffffffffffff16635d3b1d307f00000000000000000000000000000000000000000000000000000000000000007f000000000000000000000000000000000000000000000000000000000000000060037f000000000000000000000000000000000000000000000000000000000000000060016040518663ffffffff1660e01b815260040161056095949392919061100b565b602060405180830381600087803b15801561057a57600080fd5b505af115801561058e573d6000803e3d6000fd5b505050506040513d601f19601f820116820180604052508101906105b29190610e25565b9050807febf56642252004c18a776f30d528e7a0ce8c5db14b6596fb6550f630c8a24c6c60405160405180910390a250505050565b6000600160009054906101000a900473ffffffffffffffffffffffffffffffffffffffff16905090565b6000600361ffff16905090565b6000600160149054906101000a900460ff16905090565b600060606000600160149054906101000a900460ff16600181111561065d5761065c611353565b5b6000600181111561067157610670611353565b5b14905060007f0000000000000000000000000000000000000000000000000000000000000000600254426106a59190611174565b11905060008060008054905011905060007f000000000000000000000000000000000000000000000000000000000000000047101590508380156106e65750825b80156106ef5750815b80156106f85750805b955050505050915091565b7f000000000000000000000000000000000000000000000000000000000000000034101561075d576040517f3e8f808800000000000000000000000000000000000000000000000000000000815260040160405180910390fd5b6000600181111561077157610770611353565b5b600160149054906101000a900460ff16600181111561079357610792611353565b5b146107ca576040517fe76be6fc00000000000000000000000000000000000000000000000000000000815260040160405180910390fd5b6000339080600181540180825580915050600190039060005260206000200160009091909190916101000a81548173ffffffffffffffffffffffffffffffffffffffff021916908373ffffffffffffffffffffffffffffffffffffffff1602179055503373ffffffffffffffffffffffffffffffffffffffff167f1d64fb5ba9f2548c5b98468d58f25b87b9e866afee0122e92d9fe722bf85076c60405160405180910390a2565b60007f0000000000000000000000000000000000000000000000000000000000000000905090565b6000600163ffffffff16905090565b60008082815481106108be576108bd611382565b5b9060005260206000200160009054906101000a900473ffffffffffffffffffffffffffffffffffffffff169050919050565b60008080549050905090565b600080805490508260008151811061091757610916611382565b5b602002602001015161092991906112c4565b905060008082815481106109405761093f611382565b5b9060005260206000200160009054906101000a900473ffffffffffffffffffffffffffffffffffffffff16905080600160006101000a81548173ffffffffffffffffffffffffffffffffffffffff021916908373ffffffffffffffffffffffffffffffffffffffff1602179055506000600160146101000a81548160ff021916908360018111156109d4576109d3611353565b5b0217905550600067ffffffffffffffff8111156109f4576109f36113b1565b5b604051908082528060200260200182016040528015610a225781602001602082028036833780820191505090505b5060009080519060200190610a38929190610b2d565b504260028190555060008173ffffffffffffffffffffffffffffffffffffffff1647604051610a6690610f82565b60006040518083038185875af1925050503d8060008114610aa3576040519150601f19603f3d011682016040523d82523d6000602084013e610aa8565b606091505b5050905080610ae3576040517f1c94012000000000000000000000000000000000000000000000000000000000815260040160405180910390fd5b8173ffffffffffffffffffffffffffffffffffffffff167f5b690ec4a06fe979403046eaeea5b3ce38524683c3001f662c8b5a829632f7df60405160405180910390a25050505050565b828054828255906000526020600020908101928215610ba6579160200282015b82811115610ba55782518260006101000a81548173ffffffffffffffffffffffffffffffffffffffff021916908373ffffffffffffffffffffffffffffffffffffffff16021790555091602001919060010190610b4d565b5b509050610bb39190610bb7565b5090565b5b80821115610bd0576000816000905550600101610bb8565b5090565b6000610be7610be2846110f0565b6110cb565b90508083825260208201905082856020860282011115610c0a57610c096113ea565b5b60005b85811015610c3a5781610c208882610d38565b845260208401935060208301925050600181019050610c0d565b5050509392505050565b6000610c57610c528461111c565b6110cb565b905082815260208101848484011115610c7357610c726113ef565b5b610c7e848285611251565b509392505050565b600082601f830112610c9b57610c9a6113e5565b5b8135610cab848260208601610bd4565b91505092915050565b60008083601f840112610cca57610cc96113e5565b5b8235905067ffffffffffffffff811115610ce757610ce66113e0565b5b602083019150836001820283011115610d0357610d026113ea565b5b9250929050565b600082601f830112610d1f57610d1e6113e5565b5b8135610d2f848260208601610c44565b91505092915050565b600081359050610d4781611426565b92915050565b600081519050610d5c81611426565b92915050565b60008060208385031215610d7957610d786113f9565b5b600083013567ffffffffffffffff811115610d9757610d966113f4565b5b610da385828601610cb4565b92509250509250929050565b600060208284031215610dc557610dc46113f9565b5b600082013567ffffffffffffffff811115610de357610de26113f4565b5b610def84828501610d0a565b91505092915050565b600060208284031215610e0e57610e0d6113f9565b5b6000610e1c84828501610d38565b91505092915050565b600060208284031215610e3b57610e3a6113f9565b5b6000610e4984828501610d4d565b91505092915050565b60008060408385031215610e6957610e686113f9565b5b6000610e7785828601610d38565b925050602083013567ffffffffffffffff811115610e9857610e976113f4565b5b610ea485828601610c86565b9150509250929050565b610eb7816111a8565b82525050565b610ec6816111ba565b82525050565b610ed5816111c6565b82525050565b6000610ee68261114d565b610ef08185611158565b9350610f00818560208601611260565b610f09816113fe565b840191505092915050565b610f1d8161123f565b82525050565b6000610f30600083611169565b9150610f3b8261140f565b600082019050919050565b610f4f816111e3565b82525050565b610f5e81611211565b82525050565b610f6d8161121b565b82525050565b610f7c8161122b565b82525050565b6000610f8d82610f23565b9150819050919050565b6000602082019050610fac6000830184610eae565b92915050565b6000604082019050610fc76000830185610eae565b610fd46020830184610eae565b9392505050565b6000604082019050610ff06000830185610ebd565b81810360208301526110028184610edb565b90509392505050565b600060a0820190506110206000830188610ecc565b61102d6020830187610f73565b61103a6040830186610f46565b6110476060830185610f64565b6110546080830184610f64565b9695505050505050565b60006020820190506110736000830184610f14565b92915050565b600060208201905061108e6000830184610f55565b92915050565b60006060820190506110a96000830186610f55565b6110b66020830185610f55565b6110c36040830184610f55565b949350505050565b60006110d56110e6565b90506110e18282611293565b919050565b6000604051905090565b600067ffffffffffffffff82111561110b5761110a6113b1565b5b602082029050602081019050919050565b600067ffffffffffffffff821115611137576111366113b1565b5b611140826113fe565b9050602081019050919050565b600081519050919050565b600082825260208201905092915050565b600081905092915050565b600061117f82611211565b915061118a83611211565b92508282101561119d5761119c6112f5565b5b828203905092915050565b60006111b3826111f1565b9050919050565b60008115159050919050565b6000819050919050565b60008190506111de82611412565b919050565b600061ffff82169050919050565b600073ffffffffffffffffffffffffffffffffffffffff82169050919050565b6000819050919050565b600063ffffffff82169050919050565b600067ffffffffffffffff82169050919050565b600061124a826111d0565b9050919050565b82818337600083830152505050565b60005b8381101561127e578082015181840152602081019050611263565b8381111561128d576000848401525b50505050565b61129c826113fe565b810181811067ffffffffffffffff821117156112bb576112ba6113b1565b5b80604052505050565b60006112cf82611211565b91506112da83611211565b9250826112ea576112e9611324565b5b828206905092915050565b7f4e487b7100000000000000000000000000000000000000000000000000000000600052601160045260246000fd5b7f4e487b7100000000000000000000000000000000000000000000000000000000600052601260045260246000fd5b7f4e487b7100000000000000000000000000000000000000000000000000000000600052602160045260246000fd5b7f4e487b7100000000000000000000000000000000000000000000000000000000600052603260045260246000fd5b7f4e487b7100000000000000000000000000000000000000000000000000000000600052604160045260246000fd5b600080fd5b600080fd5b600080fd5b600080fd5b600080fd5b600080fd5b6000601f19601f8301169050919050565b50565b6002811061142357611422611353565b5b50565b61142f81611211565b811461143a57600080fd5b5056fea2646970667358221220a3f459f85b92b2715b879a7ca9e93263758397b2c43512001b690761f62a964b64736f6c63430008070033",
  "devdoc": {
    "author": "Fabio Bressler",
    "details": "This implements Chainlink VRF v2 and Keepers",
    "kind": "dev",
    "methods": {
      "checkUpkeep(bytes)": {
        "details": "Function that Chainlink Keeper nodes call They look for the `upKeepNeeded` to return true The following should be true in order to return true: 1. Our time interval should have passed 2. The lottery should have at least one player, and have some ETH 3. Our subscription is funded with LINK 4. The lottery should be in an \"open\" state Note: block.timestamp = returns the current timestamp of the blockchain"
      },
      "enterLottery()": {
        "details": "Enter the lottery (paying entrance fee amount of ether defined in the constructor)"
      },
      "performUpkeep(bytes)": {
        "details": "Request a random winner (verifiably random) and automatically run through Chainlink Keepershttps://docs.chain.link/docs/chainlink-keepers/introduction/Step 1 : request the random numberStep 2 : once we get it, do something with itit is a 2 (two) transaction process: intentional to make it trully random"
      }
    },
    "title": "Sample Lottery Contract",
    "version": 1
  },
  "userdoc": {
    "kind": "user",
    "methods": {
      "checkUpkeep(bytes)": {
        "notice": "Verify if time enoug has passed to select another winner"
      },
      "enterLottery()": {
        "notice": "Enter the lottery"
      },
      "performUpkeep(bytes)": {
        "notice": "Request a random winner"
      }
    },
    "notice": "Contract for an untamperable decentralized lottery smart contract",
    "version": 1
  },
  "storageLayout": {
    "storage": [
      {
        "astId": 871,
        "contract": "contracts/Lottery.sol:Lottery",
        "label": "s_players",
        "offset": 0,
        "slot": "0",
        "type": "t_array(t_address_payable)dyn_storage"
      },
      {
        "astId": 888,
        "contract": "contracts/Lottery.sol:Lottery",
        "label": "s_recentWinner",
        "offset": 0,
        "slot": "1",
        "type": "t_address"
      },
      {
        "astId": 891,
        "contract": "contracts/Lottery.sol:Lottery",
        "label": "s_lotteryState",
        "offset": 20,
        "slot": "1",
        "type": "t_enum(LotteryState)866"
      },
      {
        "astId": 893,
        "contract": "contracts/Lottery.sol:Lottery",
        "label": "s_lastTimestamp",
        "offset": 0,
        "slot": "2",
        "type": "t_uint256"
      }
    ],
    "types": {
      "t_address": {
        "encoding": "inplace",
        "label": "address",
        "numberOfBytes": "20"
      },
      "t_address_payable": {
        "encoding": "inplace",
        "label": "address payable",
        "numberOfBytes": "20"
      },
      "t_array(t_address_payable)dyn_storage": {
        "base": "t_address_payable",
        "encoding": "dynamic_array",
        "label": "address payable[]",
        "numberOfBytes": "32"
      },
      "t_enum(LotteryState)866": {
        "encoding": "inplace",
        "label": "enum Lottery.LotteryState",
        "numberOfBytes": "1"
      },
      "t_uint256": {
        "encoding": "inplace",
        "label": "uint256",
        "numberOfBytes": "32"
      }
    }
  }
}